:020000040800F2
:10000000F81200209D01000803170008551500088C
:1000100001170008A9020008DD1D0008000000000B
:100020000000000000000000000000007B17000836
:10003000AB02000800000000791700087D170008D7
:10004000B7010008B7010008B7010008B7010008B0
:10005000B7010008B7010008B7010008B7010008A0
:10006000B7010008B7010008B7010008B701000890
:10007000B7010008B7010008B7010008B701000880
:10008000B7010008B7010008B7010008B701000870
:10009000B7010008B7010008B7010008B701000860
:1000A000B7010008B7010008B7010008B701000850
:1000B000B7010008B7010008B7010008B701000840
:1000C000B7010008B7010008B7010008B701000830
:1000D000B7010008D11D0008B7010008B7010008EA
:1000E000B7010008B7010008B7010008B701000810
:1000F000B7010008B7010008B7010008B701000800
:10010000B7010008B7010008B7010008B7010008EF
:10011000B7010008B7010008B7010008B7010008DF
:10012000B7010008B7010008B7010008B7010008CF
:10013000B7010008B7010008B7010008B7010008BF
:10014000B7010008B7010008B7010008B7010008AF
:10015000B7010008B7010008B7010008B70100089F
:10016000B7010008B7010008B7010008B70100088F
:10017000B7010008B7010008B7010008000000003F
:10018000B7010008B7010008DFF80CD000F07AF8DA
:1001900000480047951E0008F812002006488047D6
:1001A00006480047FEE7FEE7FEE7FEE7FEE7FEE75C
:1001B000FEE7FEE7FEE7FEE71518000889010008E4
:1001C0002DE9F05F0546002092469B46884606468C
:1001D000814640241BE0284641464746224600F01F
:1001E00041F853465A46C01A914110D31146184659
:1001F000224600F028F82D1A67EB01084F462246E8
:100200000120002100F01FF817EB00094E41201ECD
:10021000A4F10104DFDC484631462A464346BDE8E6
:10022000F09FD2B201E000F8012B491EFBD27047CB
:100230000022F6E710B513460A4604461946FFF7B2
:10024000F0FF204610BD202A04DB203A00FA02F11C
:10025000002070479140C2F1200320FA03F31943B4
:1002600090407047202A04DB203A21FA02F0002156
:10027000704721FA02F3D040C2F1200291400843B6
:1002800019467047064C074D06E0E06840F0010350
:1002900094E8070098471034AC42F6D3FFF778FF94
:1002A0003820000858200008FEE7704772B6FEE7C5
:1002B0002DE9F0410446876D00F066F9064694F892
:1002C00035000025022806D08020606584F834506F
:1002D0000120BDE8F0812068016821F0160101606D
:1002E0002068416921F080014161206C08B9A06C4F
:1002F00020B12068016821F00801016020680168D0
:1003000021F0010101600CE000F03EF9801B05289E
:1003100007D920206065032084F8350084F8345024
:10032000D7E720680068C007EED194F85C103F2042
:100330008840B860012084F8350084F834500020EB
:10034000C7E790F83510022903D0802141650120CC
:100350007047052180F835100068016821F001011F
:10036000016000207047000070B5044600F00CF9F1
:100370000546601C02D004480078044400F004F9EB
:10038000401BA042FAD370BD140000202DE9F84FA5
:10039000DFF8BCA1002201250AF1040B03264FF06F
:1003A0000F090BF1040E00BF0B6805FA02F423409D
:1003B000A34270D10F7907F00307012F01D0022F5C
:1003C00016D187684FEA420806FA08FC27EA0C07AC
:1003D000D1F80CC00CFA08FC4CEA070CC0F808C0B5
:1003E0004768A7430C79C4F3001494403C4344602D
:1003F0000C79E443A4070AD0C4684FEA420C06FA19
:100400000CF7BC438F6807FA0CF72743C7600C79D9
:1004100004F00304022C12D1D40800EB840CDCF8A5
:1004200020405707FF0E09FA07F824EA0804D1F81C
:10043000108008FA07F848EA0408CCF8208004681D
:100440004FEA420C06FA0CF7BC430F7907F003079A
:1004500007FA0CF7274307604C6814F4403F70D04C
:100460003C4C276847F480472760246822F0030744
:1004700004F480440094384C07EB040CDCF8084882
:1004800097074FEA177809FA08F7BC43334FB84289
:1004900002D1002724E054E0314FB84201D10127B6
:1004A0001EE0304FB84201D1022719E02E4FB8426A
:1004B00001D1032714E02D4FB84201D104270FE0EA
:1004C0002B4FB84201D105270AE02A4FB84201D18B
:1004D000062705E0284FB84201D1072700E008278A
:1004E00007FA08F72743CCF80878DAF800405746AF
:1004F000D1F804C09C435FEACC3C00D51C433C606F
:10050000DBF800405F46D1F804C09C435FEA8C3CB6
:1005100000D51C433C60DEF800407746D1F804C0AB
:100520009C435FEACC2C00D51C433C60084F0C3741
:100530003C68D1F804C09C435FEA8C2C00D51C4376
:100540003C60521C102AFFF42FAFBDE8F88F00006A
:10055000003C0140443802400030014000000240AD
:100560000004024000080240000C0240001002405B
:100570000014024000180240001C02400AB18161D0
:1005800070470904FBE700000148806870470000DD
:10059000140000200248816802781144816070478D
:1005A000140000200B4810B5016841F4007101608F
:1005B000016841F480610160016841F4807101606B
:1005C000032000F06FF8002000F006F800F024F897
:1005D000002010BD003C024070B50D4D04464FF4A4
:1005E0007A712878B1FBF0F00A490968B1FBF0F0A4
:1005F00000F00AFB48B9102C07D200222146501EF9
:1006000000F030F800206C6070BD012070BD00006B
:1006100014000020200000200A4808B5016841F4B9
:1006200080410160006800F4804000900548001F90
:10063000016841F080510160006800F08050009036
:1006400008BD000044380240002809DB00F01F020A
:10065000012191404009800000F1E020C0F8001124
:1006600070470000F0B40E4B1B680C46C3F3022326
:10067000C3F10705042D00D90425191D072901D24E
:10068000002300E0DB1E012606FA05F1491E214089
:1006900099409E40761E16403143F0BC01F0A8BB45
:1006A0000CED00E0064900F0070208684FF6FF0372
:1006B000184040EA0220034A1043086070470000D7
:1006C0000CED00E00000FA052DE9F0470E460500AC
:1006D00065D0DFF81481D8F80000F7B200F0070009
:1006E000B04207D288F80070D8F8000000F0070088
:1006F000B04254D128683D4C810712D5400703D53C
:10070000206840F4E05020602878000703D5206876
:1007100040F4604020602068A96820F0F0000843A1
:1007200020602878C0072DD0304968680839012832
:1007300012D0022813D0032811D009688907002994
:100740002DDA216821F0030101432160FFF71CFF2E
:10075000814641F2883A0EE009688903EFE70968AB
:100760008901ECE7FFF710FFA0EB0901514502D921
:100770000320BDE8F0872068696800F00C00B0EB4A
:10078000810FEFD1D8F80010404601F00701B142C7
:1007900007D90770006800F00700B04201D00120BF
:1007A000E7E72878400705D52068E96820F4E0509D
:1007B000084320602878000706D52068296920F4BE
:1007C000604040EAC100206000F038F82168084A23
:1007D000C1F30311515CC84006490860064800682F
:1007E000FFF7FAFE0020C4E7003C02400838024050
:1007F000202000082000002018000020044805499F
:1008000000680968044AC1F38221515CC8407047FE
:100810002000002008380240302000080448054924
:1008200000680968044AC1F34231515CC84070470E
:10083000200000200838024030200008154810B57C
:10084000006810F00C02144813D04110042A0FD095
:10085000082A0ED10F4C241F2268236802F03F02A1
:100860005B0207D52068C0F38810A0FB010106E0F9
:10087000084610BD2168C1F38811A1FB00010023C7
:10088000FFF79EFC2168C1F30141491C4900B0FB00
:10089000F1F010BD083802400024F4002DE9F84FB3
:1008A00004006ED02078DFF84C93C007A9F104054E
:1008B0004AD009F104000168C1F38101012908D07F
:1008C0000068C0F3810002280AD1D9F80000400274
:1008D00006D52868800337D560680028E1D033E06A
:1008E0006068B0F5803F10D0B0F5A02F286810D018
:1008F00020F480302860286820F480202860606818
:10090000A8B1FFF741FE06460DE0286840F48030AC
:10091000F4E740F480202860F7E700BFFFF734FEDB
:10092000801B642873D828688003F7D50CE0FFF794
:100930002BFE064605E000BFFFF726FE801B64285D
:10094000F0D828688003F7D42078DFF8AC828007DD
:100950004FF0000A3ED5A748001D016811F00C0FAA
:1009600008D00068C0F3810002280BD1D9F800003C
:10097000400207D42868800716D5E068012800D116
:1009800012E033E1E068B8B10120C8F80000FFF7D9
:10099000FBFD064605E000BFFFF7F6FD801B0228C1
:1009A000C0D828688007F7D52868216920F0F800AA
:1009B00040EAC10028600DE0C8F800A0FFF7E4FDA0
:1009C000064604E0FFF7E0FD801B02281FD82868D8
:1009D0008007F7D42078000722D5864F87486169C1
:1009E000703771B101210160FFF7CEFD064604E0CA
:1009F000FFF7CAFD801B022809D838688007F7D5A1
:100A00000EE0C0F800A0FFF7BFFD064605E082E05B
:100A1000FFF7BAFD801B02287DD838688007F7D41D
:100A20002078400768D5DFF8CCB100270BF13C0BEC
:100A3000DBF80000C0000BD4DBF8001041F080515F
:100A4000CBF80010DBF80000012700F08050009088
:100A50006B4E3068C00510D4306840F48070306050
:100A6000FFF792FD009005E0FFF78EFD0099401A18
:100A7000022850D83068C005F6D55E4EA0686C36A6
:100A800001280FD00528306810D020F00100306018
:100A9000306820F004003060A068B8B1FFF774FD42
:100AA00000900FE0306840F00100F4E740F00400EF
:100AB0003060F7E7FFF768FD0099411A41F288308E
:100AC000814266D830688007F4D50EE0FFF75CFD00
:100AD000009007E0FFF758FD0099411A41F2883075
:100AE000814256D830688007F4D42FB1DBF800106B
:100AF00021F08051CBF80010A069C8B33D49091D11
:100B00000968C1F3810102294AD00228504607D062
:100B1000C8F8600000E03CE0FFF736FD04463BE02B
:100B20004746C8F86000FFF72FFD064605E000BF06
:100B3000FFF72AFD801B02282BD828688001F7D4F4
:100B4000D4E907010843A16A2E4A490802EB014192
:100B5000626A41EA8211084394F82C1040EA01616C
:100B6000C9F8001001203866FFF70EFD044606E0C4
:100B70003EE000BFFFF708FD001B022809D82868E7
:100B80008001F7D534E000BFFFF7FEFC001B022810
:100B900002D90320BDE8F88F28688001F4D427E04B
:100BA0000128F7D0D9F80000E26900F480019142F1
:100BB0001CD1226A00F03F01914217D147F6C07163
:100BC000626A0140B1EB821F10D1A26A4FF0FF337D
:100BD00000F4403103EB5202B1EB024F06D194F81E
:100BE0002C1000F07060B0EB016F01D00120D1E754
:100BF0000020CFE70438024000004742800E474201
:100C0000007000400000FFFF10B5401EB0F1807F73
:100C100001D3012010BD4FF0E02460610F21601767
:100C200001F0E6F80020A06107202061002010BD3F
:100C300010B590F83C20012A22D0012280F83C20F7
:100C4000CA688C6822F4407222434C6822F48062A5
:100C500022430C6822F4006222430C6922F4805281
:100C600022434C6922F400522243C969002322F432
:100C700080420A4301684A6480F83C30002010BD7D
:100C8000022010BD70B590F83C20012A32D001241A
:100C900080F83C40022280F83D2003685A689D6835
:100CA00022F070060A6832435A60134B02689A4277
:100CB00014D0B2F1804F11D0104B9A420ED0104B8D
:100CC0009A420BD00F4B9A4208D00F4B9A4205D054
:100CD0000E4B9A4202D00E4B9A4204D1496825F03D
:100CE00080031943916080F83D40002180F83C105A
:100CF000084670BD022070BD0000014000040040A5
:100D000000080040000C0040000401400040014089
:100D10000018004010B5040003D094F83D0010B155
:100D200007E0012010BD002084F83C00204600F0C0
:100D30001FF8022084F83D00211D206800F072FD9C
:100D4000012084F8460084F83E0084F83F0084F8CF
:100D5000400084F8410084F8420084F8430084F89D
:100D6000440084F8450084F83D00002010BD0000D8
:100D700008B500680649884208D10648016841F074
:100D800001010160006800F00100009008BD000052
:100D9000000001404438024070B5044690F83C0021
:100DA0000025012817D0012684F83C60022084F831
:100DB0003D002068826822F0770222F47F42826040
:100DC0000868502838D00DDC20284FD005DC90B3BF
:100DD000102811D14AE0022070BD302846D04028AA
:100DE0000AD13BE060282FD070280DD0B0F5805F8D
:100DF00003D0B0F5005F12D0012584F83D600020DB
:100E000084F83C00284670BDCB68D1E901212068F8
:100E100000F079FD2068816841F0770109E0CB6836
:100E2000D1E90121206800F06EFD2068816841F45D
:100E300080418160E1E719E0CA684968206800F0F4
:100E400037FE5021206806E0CA684968206800F033
:100E500040FE6021206800F060FDCEE7CA68496866
:100E6000206800F025FE40212068F4E72268014652
:100E70001046F0E710B586B0044614216846FFF727
:100E8000D7F90E492068884216D10D480021026822
:100E900042F010020260006800F0100005904FF46C
:100EA000007000900220CDE901010120CDE903107E
:100EB00069460448FFF76AFA06B010BD0000014019
:100EC000303802400010024070B5044690F83C00F3
:100ED00000260D4601280FD0012084F83C006AB19D
:100EE000042A1DD0082A2FD00C2A3FD0012600202A
:100EF00084F83C00304670BD022070BD206800F0D0
:100F000015FD2068816941F00801816120688169CF
:100F100021F004018161206881692A69114311E08F
:100F2000206800F033FD2068816941F4006181612F
:100F30002068816921F480618161206881692A6962
:100F400041EA02218161D2E7206800F055FD206866
:100F5000C16941F00801C1612068C16921F0040143
:100F6000C1612068C1692A69114311E0206800F05D
:100F700077FD2068C16941F40061C1612068C169E1
:100F800021F48061C1612068C1692A6941EA0221B6
:100F9000C161ACE710B5040003D094F83D0010B176
:100FA00007E0012010BD002084F83C00204600F03E
:100FB0001EF8022084F83D00211D206800F032FC5C
:100FC000012084F8460084F83E0084F83F0084F84D
:100FD000400084F8410084F8420084F8430084F81B
:100FE000440084F8450084F83D00002010BD70479F
:100FF00010B50446022249B104290ED0082913D0A5
:1010000094F84100012816D0012010BD94F83E004C
:101010000128F9D184F83E200FE094F83F00012820
:10102000F2D184F83F2008E094F840000128EBD189
:1010300084F8402001E084F841200122206800F07B
:1010400055FC16492068164A884201D0904203D1C7
:10105000436C43F4004343642068884213D0B0F1EA
:10106000804F10D00F4988420DD00F4988420AD0D6
:101070000E49884207D0904205D00D49884202D0DF
:101080000C49884204D1816801F00701062903D088
:10109000016841F001010160002010BD0000014025
:1010A000000401400004004000080040000C004023
:1010B000004001400018004070477047F8B50168D3
:1010C00004460868CA684B6910F00F0F4FF000051E
:1010D00059D003F0010602F49077374365D0C10779
:1010E00005D0D10503D5216C41F0010121644107F0
:1010F00005D5D90703D0216C41F002012164810795
:1011000005D5D90703D0216C41F004012164010702
:1011100007D502F02001314303D0216C41F00801D2
:101120002164216C00293AD0800604D5900602D5AE
:10113000204600F00FFD20684069216CC0F380104C
:10114000090700D460B3204600F0DDFC2068406948
:10115000400621D52068143050E8001F21F04001DE
:1011600040E80012002AF5D1A06BA8B16C490165D6
:10117000A06BFFF7E6F8002811D0A06B016D01B05D
:10118000BDE8F040084783060FD593060DD52046ED
:10119000BDE8F84000F0DEBC2046FFF78EFFF8BD4A
:1011A0002046FFF78AFF2564F8BD266B2023012E19
:1011B00079D1C60677D5D60675D5086848680090F7
:1011C0004869400640D5A16B086840680004000CDF
:1011D000EAD0A28D8242E7D9E085C869B0F5807F68
:1011E0002DD020680C3050E8001F21F4807140E8B9
:1011F0000012002AF5D12068143050E8001F21F0B9
:10120000010140E80012002AF5D12068143050E8AE
:10121000001F21F0400140E80012002AF5D184F8B7
:101220003E30256320680C3050E8001F21F010018B
:1012300040E80012002AF5D1A06BFFF739F8A08D25
:10124000E18D401A81B229E0A08DE18D401A81B272
:10125000E08D0028A8D00029A6D020680C3050E8E6
:10126000002F22F4907240E80026002EF5D120686D
:10127000143050E8002F22F0010240E80026002E32
:10128000F5D184F83E30256320680C3050E8002FFB
:1012900022F0100240E80023002BF5D12046FFF792
:1012A0000BFFF8BDFFE705062BD5150629D594F8E9
:1012B0003D002128F5D1A068B0F5805F01D12069FB
:1012C000B0B1206A411C2162216800784860E08C3E
:1012D000401E0004000CE084E3D12068C16821F0C6
:1012E0008001C1602068C16841F04001C160D8E759
:1012F000206A0088C0F308004860206A801C2062D1
:10130000E5E74006CDD55006CBD5CA68204622F089
:101310004002CA6084F83D3000F01BF9C1E70000CC
:10132000F71A000870B5040004D094F83D000025B9
:1013300010B106E0012070BD84F83C50204600F05A
:1013400023F8242084F83D002068C16821F400516E
:10135000C160204600F05EFC2068016921F49041E4
:1013600001612068416921F02A0141612068C1685A
:1013700041F40051C1602564202084F83D0084F8C8
:101380003E00002070BD0000F0B587B00446142177
:101390006846FEF74DFF274F2368002226490224A6
:1013A000032507262548BB4224D1234B14331F684D
:1013B00047F010071F601B6803F0100305930B68CC
:1013C00043F001030B60096802AB01F001010591D4
:1013D0006902CDE9001483E864006946FEF7D6FF90
:1013E000002204212520FFF73DF92520FFF72CF9E5
:1013F00007B0F0BD124FBB42FAD10F4B10331F683C
:1014000047F400371F601B6803F4003305930B6833
:1014100043F001030B60096802AB01F00101059183
:101420000C21CDE9001483E864006946FEF7AEFFA5
:10143000DEE70000001001403038024000000240AA
:101440000044004090F83E30202B0ED159B152B1EB
:1014500090F83C30012B08D0012380F83C30002369
:10146000036300F05DBC012070470220704700005C
:1014700010B50068074988420BD10748C07800F0D2
:1014800041F905490122BDE81040C91C0348FFF796
:10149000D9BF10BD001001400800002070000020DE
:1014A0002DE9F843044690F83D001F4616460D46C8
:1014B00020284CD1C5B1BEB194F83C00012846D0DB
:1014C000012084F83C004FF00008C4F8408021203F
:1014D00084F83D00FFF758F8A6848146E684A068AA
:1014E000B0F5805F03D004E00120BDE8F8832069F7
:1014F00028B12E465FF0000584F83C800EE00026FF
:10150000FAE78021204600F026FCA0B9AEB116F81B
:10151000010B21684860E08C401EE084E08C4B4663
:101520004FF0000200970028EBD14FF04001204619
:1015300000F011FC30B10320D7E735F8020BC0F3FF
:101540000800E6E7202084F83D000020CDE70220D7
:10155000CBE77047FEE7000030B587B0142168463E
:10156000FEF766FE15480024016841F08001016025
:10157000016801F080010591016841F001010160FD
:10158000016801F001010591016841F0100101605D
:1015900000680B4D00F01000059001222021284624
:1015A000FEF7ECFF202000900120CDE90104694600
:1015B00028460394FEF7EAFE07B030BD30380240FB
:1015C0000000024010B596B000240F9410941194BE
:1015D000129413941C2108A81494FEF729FE2021CC
:1015E0006846FEF725FE294827490160A721C0E982
:1015F000011444F62061C0E903148021C0E90541CB
:10160000FFF788FB08B1FEF751FE4FF480500F90B2
:101610000FA91E48FFF7C0FB08B1FEF747FE1B48A5
:10162000FFF7B8FC08B1FEF741FE139413A9174861
:101630001494FFF727FB08B1FEF738FE6020CDE9D0
:1016400008040A940B940C940D94002208A90F48E6
:101650000E94FFF739FC08B1FEF728FE00944FF412
:101660000050CDE904400294019403946946074870
:101670000794FFF7DDFA08B1FEF718FE0348FFF7FD
:10168000F9FB16B010BD000000000140280000204A
:101690000C4810B50A4901604FF4E1314160002166
:1016A00081600C22C160C0E904128161C161FFF751
:1016B00039FE002803D0BDE81040FEF7F7BD10BD8D
:1016C00000100140700000200C4810B50A4901606C
:1016D0004FF4E1314160002181600C22C160C0E91A
:1016E00004128161C161FFF71DFE002803D0BDE82F
:1016F0001040FEF7DBBD10BD00440040B4000020E8
:10170000FEE7FEE71B4910B50B780A1D5BB1012B04
:101710000DD0022B15D0032B12D100235B281CD037
:1017200000204C7820E02C280AD1012303E04B78DC
:10173000984205D102230B708B78D0545B1C8B70C0
:1017400010BD8B78D0545B1CD8B288704A78521E7A
:101750009042F5DB0320087010BD8C781055641C96
:101760008C7003E01354401CA042FBDB8B700B70A9
:1017700010BD00000800002070477047FEF70ABF48
:1017800030B593B030216846FEF752FD14210CA805
:10179000FEF74EFD1D480025016841F080510160B3
:1017A000006800F0805011901948016841F48041B0
:1017B00001600068022400F4804011900120009034
:1017C000000401908001CDE9064008AA0420A82168
:1017D00082E813000B906846FFF760F808B172B614
:1017E000FEE70CA90F2081E831004FF4A0500F90C4
:1017F0004FF48050109005210CA8FEF765FF0028DB
:1018000001D072B6FEE713B030BD00004038024090
:10181000007000400248016841F4700101607047A7
:1018200088ED00E0F0B50268254C264D264E274F86
:10183000274B4FF0804CA04209D0604507D0A8420A
:1018400005D0B04203D0B84201D0984204D122F072
:10185000700E4A6842EA0E02A0421BD0604519D0C1
:10186000A84217D0B04215D0B84213D0984211D038
:10187000184DA8420ED0184DA8420BD0174DA842C3
:1018800008D0174DA84205D0164DA84202D0164DDB
:10189000A84203D122F44075CA682A434D6922F058
:1018A00080022A4302608A68C2620A688262A04299
:1018B00001D0984201D10969016301214161F0BD64
:1018C000000001400004004000080040000C0040FF
:1018D0000004014000400140004401400048014034
:1018E00000180040001C00400020004010B501F02E
:1018F0001F030121046A99408C430462016A9A40E3
:101900001143016210BD10B5846842EA032224F439
:101910007F440A432243826010BD826822F0700235
:101920000A4342F00701816070470000F0B5026A87
:1019300022F001020262036A42688469124E24F0B6
:1019400073050C682C4323F002058B682B430D4D67
:10195000A84201D0B04205D123F00807CB683B4331
:1019600023F00403A84201D0B04205D14D6922F40E
:10197000407215438A692A43426084614968416321
:101980000362F0BD0000014000040140F0B5026AAE
:1019900022F010020262026A436884690D6824F42E
:1019A000E64444EA05248D6822F0200242EA05124A
:1019B0000F4D104EA84201D0B04206D1CF6822F0A0
:1019C000800242EA071222F04002A84201D0B0424F
:1019D00007D14D6923F4406343EA85038D6943EAE7
:1019E000850343608461496881630262F0BD000041
:1019F0000000014000040140F0B5026A22F4807248
:101A00000262026A4368C46922F4007224F073051A
:101A10000C68124E2C438D6842EA05220E4DA842F6
:101A200001D0B04206D1CF6822F4006242EA072218
:101A300022F48062A84201D0B04207D14D6923F45C
:101A4000405343EA05138D6943EA05134360C461BB
:101A50004968C1630262F0BD00000140000401401A
:101A600030B5026A22F480520262046A4268C36995
:101A70000D6823F4E64343EA05238D6824F40054FB
:101A800044EA0534084DA84202D0084DA84204D1CA
:101A90004D6922F4804242EA85124260C36149687E
:101AA0000164046230BD00000000014000040140F8
:101AB00010B5036A046A24F001040462846924F006
:101AC000F00444EA021423F00A020A438461026229
:101AD00010BD10B5036A23F0100303628369046A22
:101AE00023F4704343EA023224F0A00343EA0111D5
:101AF0008261016210BD10B5806B0021C185C18477
:101B0000FFF7DBFA10BD01680C3151E8002F22F419
:101B1000907241E80023002BF5D10168143151E89F
:101B2000002F22F0010241E80023002BF5D1016BC8
:101B3000012909D101680C3151E8002F22F010026F
:101B400041E80023002BF5D1202180F83E10002130
:101B50000163704708B590F83E10222901D0022099
:101B600008BD82684FF480539A4201D1016921B1C6
:101B7000816A9A421BD04AB10AE00268816A5268BF
:101B8000C2F308020A80816A891C08E0026972B106
:101B90000268526802F07F020A70816A491C816201
:101BA000C18D491E0904090CC18503D019E00268E2
:101BB0005268F1E70168CA6822F02002CA60016831
:101BC000CA6822F48072CA6001684A6922F0010280
:101BD0004A61202180F83E10016B012903D0FFF7F4
:101BE00047FC002008BD0021016301680C3151E869
:101BF000002F22F0100241E80023002BF5D10168EC
:101C00000A68D20602D50A6849680091818DFFF7FB
:101C100053FAE6E770B5044600680169E26821F40A
:101C20004051114301612169A068E269084361697B
:101C3000114308432168CA6849F20C639A4302437E
:101C4000CA6020684169A26921F440711143416171
:101C500031492068884202D03049884202D1FEF7DB
:101C6000DDFD01E0FEF7CAFDE269002319216425CC
:101C70003226B2F5004F626828D0A0FB0101930F15
:101C80009200FEF79DFA0146B0FBF5F06FF01802E6
:101C9000504301EB800006EB0010B0FBF5F000F0C4
:101CA000F002B1FBF5F002EB0012B1FBF5F06FF0C2
:101CB0001803584301EB800006EB0010B0FBF5F071
:101CC00000F00F0021681044886070BDA0FB010186
:101CD00092185B41FEF774FA0146B0FBF5F0020181
:101CE000B1FBF5F06FF01803584301EB800006EBF1
:101CF000C000B0FBF5F000F0F80002EB4002B1FBD1
:101D0000F5F0584301EB800006EBC000B0FBF5F0A6
:101D100000F00700D6E70000001001400014014069
:101D200081628285C28500210164222280F83E20E2
:101D300080F83C100168CA6842F48072CA60016889
:101D40004A6942F001024A610068C16841F020011D
:101D5000C160002070472DE9F041984617460E46B5
:101D60000446069D27E0681C25D02DB1FEF70CFC2B
:101D7000A0EB0800A8421ED920680C3050E8001FD4
:101D800021F4D07140E80012002AF5D12068143007
:101D900050E8001F21F0010140E80012002AF5D1AF
:101DA000202084F83D0084F83E00002084F83C00A8
:101DB0000320BDE8F0812068006836EA000004D006
:101DC0000020B842CFD00020F3E70120F9E700005F
:101DD0000148FFF773B9000070000020FEE7000023
:101DE000014A024900F023B8791E000824000020AF
:101DF0000907090E002804DB00F1E02080F8001438
:101E0000704700F00F0000F1E02080F8141D7047CB
:101E100002E008C8121F08C1002AFAD170477047B3
:101E2000002001E001C1121F002AFBD170472DE9FB
:101E3000F04116460F460446002503E03946B047F8
:101E4000641C6D1C20780028F8D12846BDE8F0817C
:101E500070B5084C4FF46170216848634FF4FA651F
:101E60002846FEF781FA206845632846BDE87040A1
:101E7000FEF77ABA2800002038B504468DF8000035
:101E80000223012269460248FFF70AFB204638BDBB
:101E9000B4000020FEF786FBFFF772FCFFF75CFB47
:101EA000FFF7F6FBFFF710FCFFF78CFB012206495A
:101EB0000648FFF7C7FA00210548FFF799F800BF69
:101EC00000F008F8FCE700000B0000207000002084
:101ED00028000020234810B5234A03785179072BA6
:101EE0003FD2DFE803F0040C151E2D33350001202E
:101EF00000F064F8BDE810401CA0FFF771BF9179B5
:101F0000012900D141701EA0FFF76AFF022024E0E2
:101F1000012901D1FFF79CFF1EA0FFF761FF0320FD
:101F20001BE0416844F62062914202D35200914284
:101F300001D2491C41601CA0FFF752FF04200CE0B5
:101F4000012901D1FFF784FF052006E0062004E007
:101F5000012901D1FFF77CFF0020BDE8104000F00F
:101F60002DB810BD000000200C0000206E6F7720FF
:101F7000697320737461746520310D0A00000000DC
:101F80006E6F7720697320737461746520320D0A57
:101F9000000000006E6F77206973207374617465B0
:101FA00020330D0A000000006E6F772069732073E4
:101FB0007461746520340D0A0000000010B5164BE2
:101FC000164907289B780A780AD2DFE800F0210436
:101FD0000A0F14191C00002A02D1052B00D1087029
:101FE00010BD012AFCD1012BF9D010BD022AFCD171
:101FF000042BF4D010BD032AFCD1022BEFD010BD6E
:10200000042AF0D010BD052AFCD1032BE7D010BD67
:10201000062AE4D010BD00000C00002000000020C3
:102020000000000000000000010203040607080988
:1020300000000000010203045820000800000020F6
:1020400028000000101E0008802000082800002042
:10205000D0120000201E0008000000000000000058
:102060000008000000000000000000000100000067
:1020700010000000000000000024F4000000000038
:040000050800018965
:00000001FF
